:020000040800F2
:10000000D00800209D010008E5EE0F0835EE0F082E
:10001000E1EE0F0855DE0F0891F10F080000000017
:1000200000000000000000000000000061F00F0868
:1000300059DE0F080000000055EF0F08B9F00F0857
:10004000B7010008B7010008B7010008B7010008B0
:10005000B7010008B7010008B7010008B7010008A0
:10006000B7010008B7010008B7010008B701000890
:10007000B7010008B7010008B7010008B701000880
:10008000B7010008B7010008B7010008B701000870
:10009000B7010008B7010008B7010008B701000860
:1000A000B7010008B7010008B7010008B701000850
:1000B000B7010008B7010008B7010008B701000840
:1000C000B7010008B7010008B7010008B701000830
:1000D000B7010008B7010008B7010008B701000820
:1000E000B7010008B7010008B7010008B701000810
:1000F000B7010008B7010008B7010008B701000800
:10010000B7010008B7010008B7010008B7010008EF
:10011000B7010008B7010008B7010008B7010008DF
:10012000B7010008B7010008B7010008B7010008CF
:10013000B70100080000000000000000B70100083F
:10014000B7010008B7010008B7010008B7010008AF
:10015000B7010008B7010008B7010008B70100089F
:10016000B7010008B7010008B7010008B70100088F
:10017000B7010008B70100080000000000000000FF
:10018000B7010008B7010008DFF80CD0FDF0E0FD72
:100190000048004779F40F08D0080020064880473F
:1001A00006480047FEE7FEE7FEE7FEE7FEE7FEE75C
:1001B000FEE7FEE7FEE7FEE77DF10F088901000894
:1001C000446563202048657820204F6374202020F8
:1001D000436861720D0A2D2D2D2D2D2D2D2D2D2DC8
:1001E0002D2D2D2D2D2D2D2D2D2D0D0A20203020A6
:1001F0002020303020202030303020204E554C2020
:10020000284E756C6C206368617261637465722935
:100210000D0A2020312020203031202020303031A4
:100220002020534F4820285374617274206F662039
:1002300048656164696E67290D0A202032202020FC
:100240003032202020303032202053545820285380
:1002500074617274206F662054657874290D0A20C9
:100260002033202020303320202030303320204500
:1002700054582028456E64206F6620546578742990
:100280000D0A20203420202030342020203030342B
:100290002020454F542028456E64206F66205472FC
:1002A000616E736D697373696F6E290D0A20203555
:1002B00020202030352020203030352020454E5160
:1002C0002028456E7175697279290D0A2020362023
:1002D00020203036202020303036202041434B2053
:1002E0002841636B6E6F776C65646765290D0A2022
:1002F0002037202020303720202030303720204267
:10030000454C202842656C6C290D0A20203820209D
:100310002030382020203031302020425320202827
:100320004261636B7370616365290D0A2020392077
:100330002020303920202030313120204854202006
:1003400028486F72697A6F6E74616C2054616229FB
:100350000D0A203130202020304120202030313241
:1003600020204C462020284C696E65204665656437
:100370002C204E6577204C696E65290D0A2031319D
:10038000202020304220202030313320205654209D
:100390002028566572746963616C20546162290D6E
:1003A0000A203132202020304320202030313420D8
:1003B000204646202028466F726D20466565642CD5
:1003C000204E65772050616765290D0A2031332062
:1003D000202030442020203031352020435220205E
:1003E0002843617272696167652052657475726E27
:1003F000290D0A20313420202030452020203031A2
:10040000362020534F2020285368696674204F758A
:1004100074290D0A2031352020203046202020303C
:1004200031372020534920202853686966742049B9
:100430006E290D0A20313620202031302020203036
:1004400032302020444C45202844617461204C699E
:100450006E6B20457363617065290D0A203137206A
:1004600020203131202020303231202044433120DF
:100470002844657669636520436F6E74726F6C20E3
:1004800031290D0A2031382020203132202020301F
:100490003232202044433220284465766963652047
:1004A000436F6E74726F6C2032290D0A203139202F
:1004B0002020313320202030323320204443332089
:1004C0002844657669636520436F6E74726F6C2093
:1004D00033290D0A203230202020313420202030D2
:1004E00032342020444334202844657669636520F3
:1004F000436F6E74726F6C2034290D0A20323120E4
:100500002020313520202030323520204E414B2014
:10051000284E656761746976652041636B6E6F77FD
:100520006C65646765290D0A20323220202031363F
:10053000202020303236202053594E202853796E07
:100540006368726F6E6F75732049646C65290D0A5C
:100550002032332020203137202020303237202015
:100560004554422028456E64206F66205472616EA7
:10057000736D697420426C6F636B290D0A203234ED
:100580002020203138202020303330202043414E9D
:10059000202843616E63656C290D0A2032352020C6
:1005A0002031392020203033312020454D20202893
:1005B000456E64206F66204D656469756D290D0A6E
:1005C000203236202020314120202030333220209C
:1005D0005355422028537562737469747574652984
:1005E0000D0A2032372020203142202020303333A2
:1005F00020204553432028457363617065290D0A07
:100600002032382020203143202020303334202055
:10061000465320202846696C6520536570617261DD
:10062000746F72290D0A2032392020203144202095
:10063000203033352020475320202847726F7570B3
:1006400020536570617261746F72290D0A20333016
:1006500020202031452020203033362020525320C6
:1006600020285265636F72642053657061726174F3
:100670006F72290D0A20333120202031462020209E
:1006800030333720205553202028556E697420536D
:100690006570617261746F72290D0A2033322020F7
:1006A0002032302020203034302020202853706128
:1006B0006365290D0A203333202020323120202089
:1006C0003034312020210D0A2033342020203232D2
:1006D0002020203034322020220D0A2033352020E3
:1006E0002032332020203034332020230D0A2033C1
:1006F0003620202032342020203034342020240D95
:100700000A20333720202032352020203034352075
:1007100020250D0A2033382020203236202020309A
:1007200034362020260D0A2033392020203237206D
:1007300020203034372020270D0A2034302020207C
:1007400032382020203035302020280D0A20343146
:1007500020202032392020203035312020290D0A58
:1007600020343220202032412020203035322020F9
:100770002A0D0A2034332020203242202020303518
:100780003320202B0D0A2034342020203243202017
:100790002030353420202C0D0A2034352020203202
:1007A0004420202030353520202D0D0A20343620DD
:1007B0002020324520202030353620202E0D0A20E2
:1007C0003437202020324620202030353720202F7B
:1007D0000D0A2034382020203330202020303630BD
:1007E0002020300D0A2034392020203331202020D1
:1007F0003036312020310D0A203530202020333290
:100800002020203036322020320D0A2035312020A1
:100810002033332020203036332020330D0A20357A
:100820003220202033342020203036342020340D54
:100830000A20353320202033352020203036352043
:1008400020350D0A2035342020203336202020305A
:1008500036362020360D0A2035352020203337202B
:1008600020203036372020370D0A20353620202032
:1008700033382020203037302020380D0A203537FB
:1008800020202033392020203037312020390D0A14
:1008900020353820202033412020203037322020BE
:1008A0003A0D0A20353920202033422020203037CD
:1008B0003320203B0D0A20363020202033432020D7
:1008C0002030373420203C0D0A20363120202033C0
:1008D0004420202030373520203D0D0A203632209C
:1008E0002020334520202030373620203E0D0A209E
:1008F0003633202020334620202030373720203F39
:100900000D0A203634202020343020202031303091
:100910002020400D0A203635202020343120202090
:100920003130312020410D0A20363620202034324B
:100930002020203130322020420D0A20363720205E
:100940002034332020203130332020430D0A20363C
:100950003820202034342020203130342020440D11
:100960000A2036392020203435202020313035200F
:1009700020450D0A20373020202034362020203119
:1009800030362020460D0A203731202020343720F1
:1009900020203130372020470D0A203732202020F8
:1009A00034382020203131302020480D0A203733C0
:1009B00020202034392020203131312020490D0AD7
:1009C0002037342020203441202020313132202093
:1009D0004A0D0A2037352020203442202020313192
:1009E0003320204B0D0A203736202020344320208E
:1009F0002031313420204C0D0A203737202020347C
:100A00004420202031313520204D0D0A2037382058
:100A10002020344520202031313620204E0D0A2060
:100A20003739202020344620202031313720204FF4
:100A30000D0A20383020202035302020203132305F
:100A40002020500D0A203831202020353120202050
:100A50003132312020510D0A203832202020353209
:100A60002020203132322020520D0A20383320201D
:100A70002035332020203132332020530D0A2038F6
:100A80003420202035342020203132342020540DD1
:100A90000A203835202020353520202031323520DD
:100AA00020550D0A203836202020353620202031D0
:100AB00032362020560D0A203837202020353720A6
:100AC00020203132372020570D0A203838202020AE
:100AD00035382020203133302020580D0A20383975
:100AE00020202035392020203133312020590D0A93
:100AF0002039302020203541202020313332202061
:100B00005A0D0A203931202020354220202031334F
:100B10003320205B0D0A203932202020354320204D
:100B20002031333420205C0D0A2039332020203539
:100B30004420202031333520205D0D0A2039342017
:100B40002020354520202031333620205E0D0A201C
:100B50003935202020354620202031333720205FB2
:100B60000D0A203936202020363020202031343024
:100B70002020600D0A203937202020363120202007
:100B80003134312020610D0A2039382020203632BE
:100B90002020203134322020620D0A2039392020D3
:100BA0002036332020203134332020630D0A3130A9
:100BB0003020202036342020203134342020640D91
:100BC0000A313031202020363520202031343520A4
:100BD00020650D0A31303220202036362020203189
:100BE00034362020660D0A3130332020203637205D
:100BF00020203134372020670D0A31303420202066
:100C000036382020203135302020680D0A3130352B
:100C100020202036392020203135312020690D0A4E
:100C2000313036202020364120202031353220201E
:100C30006A0D0A31303720202036422020203135FD
:100C40003320206B0D0A31303820202036432020FD
:100C50002031353420206C0D0A31303920202036E7
:100C60004420202031353520206D0D0A31313020CF
:100C70002020364520202031353620206E0D0A31C7
:100C80003131202020364620202031353720206F7A
:100C90000D0A3131322020203730202020313630EB
:100CA0002020700D0A3131332020203731202020C0
:100CB0003136312020710D0A313134202020373275
:100CC0002020203136322020720D0A31313520208B
:100CD0002037332020203136332020730D0A313164
:100CE0003620202037342020203136342020740D47
:100CF0000A31313720202037352020203136352069
:100D000020750D0A3131382020203736202020313F
:100D100036362020760D0A31313920202037372011
:100D200020203136372020770D0A31323020202024
:100D300037382020203137302020780D0A313231E9
:100D400020202037392020203137312020790D0A0A
:100D500031323220202037412020203137322020EC
:100D60007A0D0A31323320202037422020203137BB
:100D70003320207B0D0A31323420202037432020BD
:100D80002031373420207C0D0A31323520202037A5
:100D90004420202031373520207D0D0A3132362085
:100DA0002020374520202031373620207E0D0A3183
:100DB000323720202037462020203137372020446A
:100DC000454C202844656C657465290D0A0D0A445C
:100DD0006563202048657820204F637420202043DD
:100DE0006861720D0A2D2D2D2D2D2D2D2D2D2D2DC2
:100DF0002D2D2D2D2D2D2D2D2D0D0A202030202097
:100E000020303020202030303020204E554C2028FB
:100E10004E756C6C20636861726163746572290D34
:100E20000A20203120202030312020203030312075
:100E300020534F4820285374617274206F662048F5
:100E4000656164696E67290D0A20203220202030F8
:100E50003220202030303220205354582028537420
:100E6000617274206F662054657874290D0A202001
:100E700033202020303320202030303320204554B0
:100E8000582028456E64206F662054657874290DBB
:100E90000A202034202020303420202030303420FC
:100EA00020454F542028456E64206F66205472619F
:100EB0006E736D697373696F6E290D0A202035207A
:100EC000202030352020203030352020454E512044
:100ED00028456E7175697279290D0A202036202007
:100EE000203036202020303036202041434B20282F
:100EF00041636B6E6F776C65646765290D0A20200E
:100F00003720202030372020203030372020424525
:100F10004C202842656C6C290D0A202038202020A6
:100F200030382020203031302020425320202842E9
:100F300061636B7370616365290D0A20203920207D
:100F400020303920202030313120204854202028E2
:100F5000486F72697A6F6E74616C20546162290DFA
:100F60000A20313020202030412020203031322012
:100F7000204C462020284C696E6520466565642C0F
:100F8000204E6577204C696E65290D0A203131208D
:100F90002020304220202030313320205654202081
:100FA00028566572746963616C20546162290D0A68
:100FB00020313220202030432020203031342020A6
:100FC0004646202028466F726D20466565642C20B9
:100FD0004E65772050616765290D0A203133202046
:100FE000203044202020303135202043522020283A
:100FF00043617272696167652052657475726E290A
:101000000D0A203134202020304520202030313678
:101010002020534F2020285368696674204F757430
:10102000290D0A2031352020203046202020303163
:101030003720205349202028536869667420496E60
:10104000290D0A2031362020203130202020303256
:10105000302020444C45202844617461204C696E46
:101060006B20457363617065290D0A20313720209C
:1010700020313120202030323120204443312028BB
:1010800044657669636520436F6E74726F6C2031BE
:10109000290D0A2031382020203132202020303202
:1010A000322020444332202844657669636520431A
:1010B0006F6E74726F6C2032290D0A203139202036
:1010C0002031332020203032332020444333202865
:1010D00044657669636520436F6E74726F6C20336C
:1010E000290D0A20323020202031342020203032B7
:1010F00034202044433420284465766963652043C6
:101100006F6E74726F6C2034290D0A2032312020EA
:1011100020313520202030323520204E414B2028F0
:101120004E656761746976652041636B6E6F776C9D
:1011300065646765290D0A2032322020203136206F
:101140002020303236202053594E202853796E63A8
:1011500068726F6E6F75732049646C65290D0A2083
:1011600032332020203137202020303237202045D4
:1011700054422028456E64206F66205472616E735D
:101180006D697420426C6F636B290D0A2032342024
:1011900020203138202020303330202043414E2081
:1011A0002843616E63656C290D0A203235202020AA
:1011B00031392020203033312020454D2020284552
:1011C0006E64206F66204D656469756D290D0A2077
:1011D000323620202031412020203033322020534D
:1011E0005542202853756273746974757465290DAE
:1011F0000A20323720202031422020203033332073
:10120000204553432028457363617065290D0A20EA
:101210003238202020314320202030333420204613
:101220005320202846696C65205365706172617493
:101230006F72290D0A2032392020203144202020CD
:101240003033352020475320202847726F75702097
:10125000536570617261746F72290D0A20333020FA
:1012600020203145202020303336202052532020AA
:10127000285265636F726420536570617261746F88
:1012800072290D0A203331202020314620202030C1
:10129000333720205553202028556E69742053651C
:1012A00070617261746F72290D0A20333220202020
:1012B00032302020203034302020202853706163C9
:1012C00065290D0A203333202020323120202030A0
:1012D00034312020210D0A203334202020323220C6
:1012E00020203034322020220D0A203335202020C7
:1012F00032332020203034332020230D0A2033368F
:1013000020202032342020203034342020240D0AA4
:101310002033372020203235202020303435202043
:10132000250D0A203338202020323620202030346A
:10133000362020260D0A2033392020203237202065
:10134000203034372020270D0A203430202020324E
:10135000382020203035302020280D0A203431203C
:10136000202032392020203035312020290D0A203C
:101370003432202020324120202030353220202AD3
:101380000D0A2034332020203242202020303533F3
:1013900020202B0D0A20343420202032432020200E
:1013A00030353420202C0D0A2034352020203244C2
:1013B00020202030353520202D0D0A2034362020E5
:1013C00020324520202030353620202E0D0A2034B2
:1013D00037202020324620202030353720202F0D86
:1013E0000A2034382020203330202020303630208E
:1013F00020300D0A203439202020333120202030A5
:1014000036312020310D0A20353020202033322083
:1014100020203036322020320D0A20353120202085
:1014200033332020203036332020330D0A2035324C
:1014300020202033342020203036342020340D0A60
:101440002035332020203335202020303635202011
:10145000350D0A2035342020203336202020303628
:10146000362020360D0A2035352020203337202025
:10147000203036372020370D0A2035362020203303
:10148000382020203037302020380D0A20353720F2
:10149000202033392020203037312020390D0A20F8
:1014A0003538202020334120202030373220203A88
:1014B0000D0A2035392020203342202020303733B8
:1014C00020203B0D0A2036302020203343202020CE
:1014D00030373420203C0D0A203631202020334480
:1014E00020202030373520203D0D0A2036322020A4
:1014F00020334520202030373620203E0D0A20366C
:1015000033202020334620202030373720203F0D45
:101510000A20363420202034302020203130302062
:1015200020400D0A20363520202034312020203163
:1015300030312020410D0A20363620202034322040
:1015400020203130322020420D0A20363720202042
:1015500034332020203130332020430D0A20363808
:1015600020202034342020203130342020440D0A23
:1015700020363920202034352020203130352020DD
:10158000450D0A20373020202034362020203130ED
:10159000362020460D0A20373120202034372020E5
:1015A000203130372020470D0A20373220202034C8
:1015B000382020203131302020480D0A20373320B8
:1015C000202034392020203131312020490D0A20BB
:1015D0003734202020344120202031313220204A4D
:1015E0000D0A20373520202034422020203131338D
:1015F00020204B0D0A203736202020344320202085
:1016000031313420204C0D0A20373720202034443B
:1016100020202031313520204D0D0A203738202060
:1016200020344520202031313620204E0D0A20372D
:1016300039202020344620202031313720204F0D02
:101640000A20383020202035302020203132302030
:1016500020500D0A20383120202035312020203123
:1016600032312020510D0A203832202020353220FE
:1016700020203132322020520D0A20383320202001
:1016800035332020203132332020530D0A203834C6
:1016900020202035342020203132342020540D0ADF
:1016A00020383520202035352020203132352020AB
:1016B000550D0A20383620202035362020203132A2
:1016C000362020560D0A203837202020353720209C
:1016D000203132372020570D0A203838202020357D
:1016E000382020203133302020580D0A203839206E
:1016F000202035392020203133312020590D0A2077
:101700003930202020354120202031333220205A0A
:101710000D0A20393120202035422020203133335A
:1017200020205B0D0A203932202020354320202044
:1017300031333420205C0D0A2039332020203544F9
:1017400020202031333520205D0D0A20393420201F
:1017500020354520202031333620205E0D0A2039E7
:1017600035202020354620202031333720205F0DC2
:101770000A203936202020363020202031343020F5
:1017800020600D0A203937202020363120202031DA
:1017900034312020610D0A203938202020363220B3
:1017A00020203134322020620D0A203939202020B7
:1017B00036332020203134332020630D0A3130307D
:1017C00020202036342020203134342020640D0A9B
:1017D0003130312020203635202020313435202072
:1017E000650D0A3130322020203636202020313459
:1017F000362020660D0A3130332020203637202055
:10180000203134372020670D0A3130342020203633
:10181000382020203135302020680D0A3130352025
:10182000202036392020203135312020690D0A3121
:101830003036202020364120202031353220206AC9
:101840000D0A313037202020364220202031353318
:1018500020206B0D0A3130382020203643202020F4
:1018600031353420206C0D0A3130392020203644A7
:1018700020202031353520206D0D0A3131302020D7
:1018800020364520202031353620206E0D0A31319A
:1018900031202020364620202031353720206F0D82
:1018A0000A313132202020373020202031363020BC
:1018B00020700D0A31313320202037312020203193
:1018C00036312020710D0A3131342020203732206A
:1018D00020203136322020720D0A3131352020206F
:1018E00037332020203136332020730D0A31313632
:1018F00020202037342020203136342020740D0A57
:101900003131372020203735202020313635202036
:10191000750D0A313138202020373620202031360D
:10192000362020760D0A313139202020373720200B
:10193000203136372020770D0A31323020202037F1
:10194000382020203137302020780D0A31323120E4
:10195000202037392020203137312020790D0A31DD
:101960003232202020374120202031373220207A87
:101970000D0A3132332020203742202020313733E6
:1019800020207B0D0A3132342020203743202020B4
:1019900031373420207C0D0A313235202020374465
:1019A00020202031373520207D0D0A31323620208D
:1019B00020374520202031373620207E0D0A313255
:1019C000372020203746202020313737202044453B
:1019D0004C202844656C657465290D0A44656320B4
:1019E0002048657820204F6374202020436861726E
:1019F0000D0A2D2D2D2D2D2D2D2D2D2D2D2D2D2D5A
:101A00002D2D2D2D2D2D0D0A202030202020303081
:101A100020202030303020204E554C20284E756C30
:101A20006C20636861726163746572290D0A2020FD
:101A30003120202030312020203030312020534FE1
:101A40004820285374617274206F66204865616471
:101A5000696E67290D0A2020322020203032202094
:101A6000203030322020535458202853746172742F
:101A7000206F662054657874290D0A2020332020B9
:101A80002030332020203030332020455458202867
:101A9000456E64206F662054657874290D0A2020F5
:101AA0003420202030342020203030342020454F76
:101AB000542028456E64206F66205472616E736DE9
:101AC000697373696F6E290D0A202035202020303C
:101AD000352020203030352020454E512028456EBD
:101AE0007175697279290D0A202036202020303640
:101AF000202020303036202041434B202841636B8A
:101B00006E6F776C65646765290D0A202037202089
:101B1000203037202020303037202042454C2028EC
:101B200042656C6C290D0A20203820202030382096
:101B30002020303130202042532020284261636B26
:101B40007370616365290D0A202039202020303907
:101B500020202030313120204854202028486F7226
:101B6000697A6F6E74616C20546162290D0A2031AC
:101B700030202020304120202030313220204C469F
:101B80002020284C696E6520466565642C204E65D2
:101B900077204C696E65290D0A20313120202030D4
:101BA00042202020303133202056542020285665F2
:101BB00072746963616C20546162290D0A203132AC
:101BC0002020203043202020303134202046462061
:101BD0002028466F726D20466565642C204E65771F
:101BE0002050616765290D0A2031332020203044C0
:101BF000202020303135202043522020284361729C
:101C000072696167652052657475726E290D0A20CC
:101C10003134202020304520202030313620205300
:101C20004F2020285368696674204F7574290D0A67
:101C30002031352020203046202020303137202010
:101C40005349202028536869667420496E290D0A7B
:101C5000203136202020313020202030323020200A
:101C6000444C45202844617461204C696E6B2045CA
:101C70007363617065290D0A2031372020203131CE
:101C80002020203032312020444331202844657602
:101C900069636520436F6E74726F6C2031290D0A81
:101CA00020313820202031322020203032322020B4
:101CB000444332202844657669636520436F6E741F
:101CC000726F6C2032290D0A2031392020203133E7
:101CD00020202030323320204443332028446576AE
:101CE00069636520436F6E74726F6C2033290D0A2F
:101CF0002032302020203134202020303234202067
:101D0000444334202844657669636520436F6E74CC
:101D1000726F6C2034290D0A203231202020313599
:101D200020202030323520204E414B20284E656740
:101D300061746976652041636B6E6F776C6564676B
:101D400065290D0A20323220202031362020203013
:101D50003236202053594E202853796E6368726FB3
:101D60006E6F75732049646C65290D0A203233202B
:101D70002020313720202030323720204554422087
:101D800028456E64206F66205472616E736D6974AD
:101D900020426C6F636B290D0A20323420202031E1
:101DA00038202020303330202043414E202843610A
:101DB0006E63656C290D0A203235202020313920D0
:101DC00020203033312020454D202028456E6420CE
:101DD0006F66204D656469756D290D0A20323620C5
:101DE0002020314120202030333220205355422002
:101DF0002853756273746974757465290D0A2032ED
:101E000037202020314220202030333320204553FA
:101E1000432028457363617065290D0A20323820FC
:101E200020203143202020303334202046532020EE
:101E30002846696C6520536570617261746F722900
:101E40000D0A203239202020314420202030333523
:101E50002020475320202847726F757020536570EB
:101E6000617261746F72290D0A2033302020203195
:101E70004520202030333620205253202028526520
:101E8000636F726420536570617261746F72290DA3
:101E90000A203331202020314620202030333720C3
:101EA000205553202028556E697420536570617247
:101EB00061746F72290D0A203332202020323020C5
:101EC0002020303430202020285370616365290D94
:101ED0000A2033332020203231202020303431209A
:101EE00020210D0A203334202020323220202030BF
:101EF00034322020220D0A20333520202032332096
:101F000020203034332020230D0A20333620202097
:101F100032342020203034342020240D0A2033375E
:101F200020202032352020203034352020250D0A75
:101F30002033382020203236202020303436202014
:101F4000260D0A203339202020323720202030343B
:101F5000372020270D0A203430202020323820203E
:101F6000203035302020280D0A2034312020203226
:101F7000392020203035312020290D0A203432200C
:101F80002020324120202030353220202A0D0A2006
:101F90003433202020324220202030353320202BA3
:101FA0000D0A2034342020203243202020303534C4
:101FB00020202C0D0A2034352020203244202020DF
:101FC00030353520202D0D0A203436202020324592
:101FD00020202030353620202E0D0A2034372020B6
:101FE00020324620202030353720202F0D0A203483
:101FF0003820202033302020203036302020300D73
:102000000A2034392020203331202020303631205E
:1020100020310D0A2035302020203332202020307E
:1020200036322020320D0A20353120202033332053
:1020300020203036332020330D0A20353220202056
:1020400033342020203036342020340D0A2035331C
:1020500020202033352020203036352020350D0A31
:1020600020353420202033362020203036362020E2
:10207000360D0A20353520202033372020203036F9
:10208000372020370D0A20353620202033382020F5
:10209000203037302020380D0A20353720202033DB
:1020A000392020203037312020390D0A20353820C2
:1020B0002020334120202030373220203A0D0A20C2
:1020C0003539202020334220202030373320203B58
:1020D0000D0A203630202020334320202030373492
:1020E00020203C0D0A20363120202033442020209F
:1020F00030373520203D0D0A203632202020334550
:1021000020202030373620203E0D0A203633202074
:1021100020334620202030373720203F0D0A20363C
:102120003420202034302020203130302020400D39
:102130000A20363520202034312020203130312033
:1021400020410D0A20363620202034322020203134
:1021500030322020420D0A20363720202034332010
:1021600020203130332020430D0A20363820202013
:1021700034342020203130342020440D0A203639D8
:1021800020202034352020203130352020450D0AF4
:1021900020373020202034362020203130362020B7
:1021A000460D0A20373120202034372020203130BE
:1021B000372020470D0A20373220202034382020B5
:1021C000203131302020480D0A20373320202034A0
:1021D000392020203131312020490D0A2037342088
:1021E0002020344120202031313220204A0D0A2085
:1021F0003735202020344220202031313320204B1D
:102200000D0A20373620202034432020203131345D
:1022100020204C0D0A203737202020344420202055
:1022200031313520204D0D0A20373820202034450B
:1022300020202031313620204E0D0A203739202031
:1022400020344620202031313720204F0D0A2038FD
:102250003020202035302020203132302020500DF9
:102260000A20383120202035312020203132312001
:1022700020510D0A203832202020353220202031F4
:1022800032322020520D0A203833202020353320CE
:1022900020203132332020530D0A203834202020D2
:1022A00035342020203132342020540D0A20383596
:1022B00020202035352020203132352020550D0AB0
:1022C000203836202020353620202031323620207C
:1022D000560D0A2038372020203537202020313273
:1022E000372020570D0A203838202020353820206C
:1022F000203133302020580D0A2038392020203555
:10230000392020203133312020590D0A2039302046
:102310002020354120202031333220205A0D0A2040
:102320003931202020354220202031333320205BDA
:102330000D0A20393220202035432020203133342B
:1023400020205C0D0A203933202020354420202015
:1023500031333520205D0D0A2039342020203545C9
:1023600020202031333620205E0D0A2039352020F0
:1023700020354620202031333720205F0D0A2039B8
:102380003620202036302020203134302020600DAF
:102390000A203937202020363120202031343120C6
:1023A00020610D0A203938202020363220202031AB
:1023B00034322020620D0A20393920202036332083
:1023C00020203134332020630D0A3130302020208A
:1023D00036342020203134342020640D0A3130314D
:1023E00020202036352020203134352020650D0A6C
:1023F0003130322020203636202020313436202043
:10240000660D0A3130332020203637202020313429
:10241000372020670D0A3130342020203638202024
:10242000203135302020680D0A313035202020360B
:10243000392020203135312020690D0A31303620F5
:102440002020364120202031353220206A0D0A31EB
:102450003037202020364220202031353320206B99
:102460000D0A3130382020203643202020313534E9
:1024700020206C0D0A3130392020203644202020C5
:1024800031353520206D0D0A313130202020364580
:1024900020202031353620206E0D0A3131312020A8
:1024A00020364620202031353720206F0D0A31316B
:1024B0003220202037302020203136302020700D6F
:1024C0000A3131332020203731202020313631208D
:1024D00020710D0A31313420202037322020203164
:1024E00036322020720D0A3131352020203733203A
:1024F00020203136332020730D0A31313620202040
:1025000037342020203136342020740D0A31313701
:1025100020202037352020203136352020750D0A27
:102520003131382020203736202020313636202007
:10253000760D0A31313920202037372020203136DE
:10254000372020770D0A31323020202037382020E4
:10255000203137302020780D0A31323120202037C9
:10256000392020203137312020790D0A31323220B4
:102570002020374120202031373220207A0D0A31A7
:102580003233202020374220202031373320207B57
:102590000D0A3132342020203743202020313734B7
:1025A00020207C0D0A313235202020374420202085
:1025B00031373520207D0D0A313236202020374535
:1025C00020202031373620207E0D0A31323720205E
:1025D000203746202020313737202044454C202802
:1025E00044656C657465290D0A446563202048655F
:1025F0007820204F6374202020436861720D0A2DDB
:102600002D2D2D2D2D2D2D2D2D2D2D2D2D2D2D2DFA
:102610002D2D2D0D0A20203020202030302020208C
:1026200030303020204E554C20284E756C6C206385
:102630006861726163746572290D0A20203120205F
:102640002030312020203030312020534F482028A6
:102650005374617274206F662048656164696E67A7
:10266000290D0A2020322020203032202020303036
:1026700032202053545820285374617274206F669E
:102680002054657874290D0A20203320202030330F
:1026900020202030303320204554582028456E64B7
:1026A000206F662054657874290D0A20203420207C
:1026B0002030342020203030342020454F54202832
:1026C000456E64206F66205472616E736D6973731A
:1026D000696F6E290D0A20203520202030352020FA
:1026E000203030352020454E512028456E717569C7
:1026F0007279290D0A202036202020303620202013
:10270000303036202041434B202841636B6E6F7779
:102710006C65646765290D0A20203720202030373A
:10272000202020303037202042454C202842656C44
:102730006C290D0A2020382020203038202020301D
:102740003130202042532020284261636B73706136
:102750006365290D0A2020392020203039202020CF
:1027600030313120204854202028486F72697A6F18
:102770006E74616C20546162290D0A203130202072
:1027800020304120202030313220204C462020288B
:102790004C696E6520466565642C204E6577204C3B
:1027A000696E65290D0A2031312020203042202019
:1027B0002030313320205654202028566572746909
:1027C00063616C20546162290D0A2031322020207F
:1027D0003043202020303134202046462020284617
:1027E0006F726D20466565642C204E6577205061C0
:1027F0006765290D0A203133202020304420202015
:1028000030313520204352202028436172726961A3
:1028100067652052657475726E290D0A2031342067
:10282000202030452020203031362020534F2020DA
:10283000285368696674204F7574290D0A20313554
:1028400020202030462020203031372020534920BE
:102850002028536869667420496E290D0A20313694
:1028600020202031302020203032302020444C45A0
:10287000202844617461204C696E6B20457363614C
:102880007065290D0A203137202020313120202089
:102890003032312020444331202844657669636515
:1028A00020436F6E74726F6C2031290D0A2031380D
:1028B0002020203132202020303232202044433268
:1028C000202844657669636520436F6E74726F6C6F
:1028D0002032290D0A2031392020203133202020B8
:1028E00030323320204443332028446576696365C1
:1028F00020436F6E74726F6C2033290D0A203230C2
:102900002020203134202020303234202044433411
:10291000202844657669636520436F6E74726F6C1E
:102920002034290D0A20323120202031352020206A
:1029300030323520204E414B20284E656761746946
:1029400076652041636B6E6F776C65646765290DF2
:102950000A2032322020203136202020303236200A
:102960002053594E202853796E6368726F6E6F75CD
:10297000732049646C65290D0A20323320202031F0
:102980003720202030323720204554422028456E01
:1029900064206F66205472616E736D697420426C9E
:1029A0006F636B290D0A203234202020313820201B
:1029B00020303330202043414E202843616E636530
:1029C0006C290D0A2032352020203139202020307A
:1029D00033312020454D202028456E64206F66202D
:1029E0004D656469756D290D0A203236202020312D
:1029F0004120202030333220205355422028537567
:102A00006273746974757465290D0A203237202049
:102A100020314220202030333320204553432028CA
:102A2000457363617065290D0A20323820202031FA
:102A3000432020203033342020465320202846696C
:102A40006C6520536570617261746F72290D0A2084
:102A500032392020203144202020303335202047B7
:102A60005320202847726F75702053657061726122
:102A7000746F72290D0A2033302020203145202028
:102A800020303336202052532020285265636F7245
:102A90006420536570617261746F72290D0A20336E
:102AA000312020203146202020303337202055533C
:102AB000202028556E697420536570617261746FAF
:102AC00072290D0A2033322020203230202020307D
:102AD0003430202020285370616365290D0A20338B
:102AE0003320202032312020203034312020210D8D
:102AF0000A2033342020203232202020303432206B
:102B000020220D0A2033352020203233202020308F
:102B100034332020230D0A20333620202032342065
:102B200020203034342020240D0A20333720202068
:102B300032352020203034352020250D0A2033382E
:102B400020202032362020203034362020260D0A46
:102B500020333920202032372020203034372020E5
:102B6000270D0A2034302020203238202020303514
:102B7000302020280D0A2034312020203239202016
:102B8000203035312020290D0A20343220202032F7
:102B90004120202030353220202A0D0A20343320D5
:102BA0002020324220202030353320202B0D0A20D7
:102BB0003434202020324320202030353420202C73
:102BC0000D0A203435202020324420202030353595
:102BD00020202D0D0A2034362020203245202020B0
:102BE00030353620202E0D0A203437202020324662
:102BF00020202030353720202F0D0A203438202087
:102C00002033302020203036302020300D0A203470
:102C10003920202033312020203036312020310D42
:102C20000A20353020202033322020203036322038
:102C300020320D0A2035312020203333202020304F
:102C400036332020330D0A20353220202033342023
:102C500020203036342020340D0A20353320202027
:102C600033352020203036352020350D0A203534EC
:102C700020202033362020203036362020360D0A02
:102C800020353520202033372020203036372020B3
:102C9000370D0A20353620202033382020203037C9
:102CA000302020380D0A20353720202033392020CD
:102CB000203037312020390D0A20353820202033AC
:102CC0004120202030373220203A0D0A203539208B
:102CD0002020334220202030373320203B0D0A2093
:102CE0003630202020334320202030373420203C31
:102CF0000D0A203631202020334420202030373563
:102D000020203D0D0A20363220202033452020206F
:102D100030373620203E0D0A20363320202033461F
:102D200020202030373720203F0D0A203634202045
:102D30002034302020203130302020400D0A203631
:102D40003520202034312020203130312020410D09
:102D50000A20363620202034322020203130322004
:102D600020420D0A20363720202034332020203105
:102D700030332020430D0A203638202020343420E0
:102D800020203130342020440D0A203639202020E4
:102D900034352020203130352020450D0A203730B1
:102DA00020202034362020203130362020460D0AC5
:102DB0002037312020203437202020313037202088
:102DC000470D0A203732202020343820202031318E
:102DD000302020480D0A203733202020343920208D
:102DE000203131312020490D0A2037342020203471
:102DF0004120202031313220204A0D0A2037352051
:102E00002020344220202031313320204B0D0A2055
:102E10003736202020344320202031313420204CEC
:102E20000D0A20373720202034442020203131352E
:102E300020204D0D0A203738202020344520202026
:102E400031313620204E0D0A2037392020203446DB
:102E500020202031313720204F0D0A20383020200B
:102E60002035302020203132302020500D0A2038EB
:102E70003120202035312020203132312020510DC9
:102E80000A203832202020353220202031323220D2
:102E900020520D0A203833202020353320202031C5
:102EA00032332020530D0A2038342020203534209E
:102EB00020203132342020540D0A203835202020A3
:102EC00035352020203132352020550D0A20383666
:102ED00020202035362020203132362020560D0A81
:102EE000203837202020353720202031323720204D
:102EF000570D0A2038382020203538202020313343
:102F0000302020580D0A2038392020203539202043
:102F1000203133312020590D0A203930202020352E
:102F20004120202031333220205A0D0A203931200F
:102F30002020354220202031333320205B0D0A2011
:102F40003932202020354320202031333420205CAA
:102F50000D0A2039332020203544202020313335FC
:102F600020205D0D0A2039342020203545202020E6
:102F700031333620205E0D0A203935202020354699
:102F800020202031333720205F0D0A2039362020C1
:102F90002036302020203134302020600D0A2039A6
:102FA0003720202036312020203134312020610D7F
:102FB0000A20393820202036322020203134322097
:102FC00020620D0A2039392020203633202020317C
:102FD00034332020630D0A31303020202036342055
:102FE00020203134342020640D0A3130312020205B
:102FF00036352020203134352020650D0A3130321D
:1030000020202036362020203134362020660D0A3C
:103010003130332020203637202020313437202013
:10302000670D0A31303420202036382020203135F9
:10303000302020680D0A31303520202036392020FC
:10304000203135312020690D0A31303620202036DC
:103050004120202031353220206A0D0A31303720BE
:103060002020364220202031353320206B0D0A31BC
:103070003038202020364320202031353420206C69
:103080000D0A3130392020203644202020313535BA
:1030900020206D0D0A31313020202036452020209F
:1030A00031353620206E0D0A313131202020364650
:1030B00020202031353720206F0D0A313132202079
:1030C0002037302020203136302020700D0A313159
:1030D0003320202037312020203136312020710D3F
:1030E0000A3131342020203732202020313632205E
:1030F00020720D0A31313520202037332020203135
:1031000036332020730D0A31313620202037342009
:1031100020203136342020740D0A31313720202010
:1031200037352020203136352020750D0A313138D1
:1031300020202037362020203136362020760D0AF8
:1031400031313920202037372020203136372020D8
:10315000770D0A31323020202037382020203137B7
:10316000302020780D0A31323120202037392020BC
:10317000203137312020790D0A313232202020379A
:103180004120202031373220207A0D0A313233207D
:103190002020374220202031373320207B0D0A3178
:1031A0003234202020374320202031373420207C27
:1031B0000D0A313235202020374420202031373588
:1031C00020207D0D0A313236202020374520202056
:1031D00031373620207E0D0A313237202020374605
:1031E000202020313737202044454C202844656C6E
:1031F000657465290D0A44656320204865782020A0
:103200004F6374202020436861720D0A2D2D2D2DEF
:103210002D2D2D2D2D2D2D2D2D2D2D2D2D2D2D2DDE
:103220000D0A202030202020303020202030303067
:1032300020204E554C20284E756C6C2063686172BE
:103240006163746572290D0A2020312020203031FD
:103250002020203030312020534F482028537461E3
:103260007274206F662048656164696E67290D0A73
:1032700020203220202030322020203030322020E8
:1032800053545820285374617274206F662054651B
:103290007874290D0A20203320202030332020206C
:1032A00030303320204554582028456E64206F6606
:1032B0002054657874290D0A2020342020203034D1
:1032C0002020203030342020454F542028456E6483
:1032D000206F66205472616E736D697373696F6ECF
:1032E000290D0A20203520202030352020203030A4
:1032F000352020454E512028456E71756972792917
:103300000D0A202036202020303620202030303674
:10331000202041434B202841636B6E6F776C6564BE
:103320006765290D0A2020372020203037202020F3
:10333000303037202042454C202842656C6C290DE6
:103340000A20203820202030382020203031302022
:103350002042532020284261636B737061636529AA
:103360000D0A202039202020303920202030313112
:1033700020204854202028486F72697A6F6E74614B
:103380006C20546162290D0A203130202020304108
:1033900020202030313220204C462020284C696EDD
:1033A0006520466565642C204E6577204C696E6506
:1033B000290D0A20313120202030422020203031B8
:1033C0003320205654202028566572746963616C3E
:1033D00020546162290D0A20313220202030432000
:1033E000202030313420204646202028466F726D40
:1033F00020466565642C204E6577205061676529FD
:103400000D0A203133202020304420202030313557
:103410002020435220202843617272696167652031
:1034200052657475726E290D0A20313420202030C7
:10343000452020203031362020534F20202853684B
:10344000696674204F7574290D0A203135202020BB
:103450003046202020303137202053492020285367
:103460006869667420496E290D0A203136202020B3
:1034700031302020203032302020444C4520284458
:10348000617461204C696E6B2045736361706529BE
:103490000D0A2031372020203131202020303231D8
:1034A0002020444331202844657669636520436FBA
:1034B0006E74726F6C2031290D0A20313820202063
:1034C0003132202020303232202044433220284420
:1034D000657669636520436F6E74726F6C20322964
:1034E0000D0A203139202020313320202030323382
:1034F0002020444333202844657669636520436F68
:103500006E74726F6C2033290D0A20323020202017
:1035100031342020203032342020444334202844C9
:10352000657669636520436F6E74726F6C20342911
:103530000D0A203231202020313520202030323534
:1035400020204E414B20284E6567617469766520C6
:1035500041636B6E6F776C65646765290D0A203275
:10356000322020203136202020303236202053597E
:103570004E202853796E6368726F6E6F75732049A1
:10358000646C65290D0A2032332020203137202039
:103590002030323720204554422028456E64206F69
:1035A00066205472616E736D697420426C6F636B38
:1035B000290D0A20323420202031382020203033B9
:1035C00030202043414E202843616E63656C290DF5
:1035D0000A2032352020203139202020303331207C
:1035E00020454D202028456E64206F66204D65647F
:1035F00069756D290D0A20323620202031412020A6
:103600002030333220205355422028537562737482
:103610006974757465290D0A2032372020203142E3
:103620002020203033332020455343202845736326
:10363000617065290D0A2032382020203143202076
:10364000203033342020465320202846696C6520E2
:10365000536570617261746F72290D0A20323920CE
:103660002020314420202030333520204753202093
:103670002847726F757020536570617261746F7244
:10368000290D0A20333020202031452020203033DE
:1036900036202052532020285265636F72642053D5
:1036A0006570617261746F72290D0A2033312020B8
:1036B0002031462020203033372020555320202829
:1036C000556E697420536570617261746F72290D53
:1036D0000A20333220202032302020203034302085
:1036E0002020285370616365290D0A203333202080
:1036F0002032312020203034312020210D0A203387
:103700003420202032322020203034322020220D5C
:103710000A2033352020203233202020303433203B
:1037200020230D0A20333620202032342020203060
:1037300034342020240D0A20333720202032352035
:1037400020203034352020250D0A20333820202039
:1037500032362020203034362020260D0A203339FE
:1037600020202032372020203034372020270D0A17
:1037700020343020202032382020203035302020C6
:10378000280D0A20343120202032392020203035E5
:10379000312020290D0A20343220202032412020DF
:1037A0002030353220202A0D0A20343320202032C8
:1037B0004220202030353320202B0D0A20343420A5
:1037C0002020324320202030353420202C0D0A20A8
:1037D0003435202020324420202030353520202D43
:1037E0000D0A203436202020324520202030353666
:1037F00020202E0D0A203437202020324620202081
:1038000030353720202F0D0A203438202020333047
:103810002020203036302020300D0A20343920205E
:103820002033312020203036312020310D0A203540
:103830003020202033322020203036322020320D1C
:103840000A20353120202033332020203036332009
:1038500020330D0A20353220202033342020203020
:1038600036342020340D0A203533202020333520F3
:1038700020203036352020350D0A203534202020F8
:1038800033362020203036362020360D0A203535BC
:1038900020202033372020203036372020370D0AD3
:1038A000203536202020333820202030373020208B
:1038B000380D0A203537202020333920202030379A
:1038C000312020390D0A2035382020203341202096
:1038D0002030373220203A0D0A203539202020337D
:1038E0004220202030373320203B0D0A2036302064
:1038F0002020334320202030373420203C0D0A2064
:103900003631202020334420202030373520203D00
:103910000D0A203632202020334520202030373633
:1039200020203E0D0A203633202020334620202040
:1039300030373720203F0D0A203634202020343005
:103940002020203130302020400D0A203635202024
:103950002034312020203130312020410D0A203602
:103960003620202034322020203130322020420DD9
:103970000A203637202020343320202031303320D5
:1039800020430D0A203638202020343420202031D6
:1039900030342020440D0A203639202020343520B0
:1039A00020203130352020450D0A203730202020BE
:1039B00034362020203130362020460D0A20373181
:1039C00020202034372020203130372020470D0A96
:1039D0002037322020203438202020313130202060
:1039E000480D0A203733202020343920202031315F
:1039F000312020490D0A2037342020203441202056
:103A00002031313220204A0D0A2037352020203441
:103A10004220202031313320204B0D0A2037362020
:103A20002020344320202031313420204C0D0A2026
:103A30003737202020344420202031313520204DBC
:103A40000D0A2037382020203445202020313136FF
:103A500020204E0D0A2037392020203446202020F7
:103A600031313720204F0D0A2038302020203530CA
:103A70002020203132302020500D0A2038312020E3
:103A80002035312020203132312020510D0A2038BC
:103A90003220202035322020203132322020520D99
:103AA0000A203833202020353320202031323320A3
:103AB00020530D0A20383420202035342020203196
:103AC00032342020540D0A2038352020203535206E
:103AD00020203132352020550D0A20383620202074
:103AE00035362020203132362020560D0A20383736
:103AF00020202035372020203132372020570D0A52
:103B00002038382020203538202020313330202024
:103B1000580D0A2038392020203539202020313313
:103B2000312020590D0A2039302020203541202015
:103B30002031333220205A0D0A20393120202035FF
:103B40004220202031333320205B0D0A20393220DF
:103B50002020354320202031333420205C0D0A20E2
:103B60003933202020354420202031333520205D7A
:103B70000D0A2039342020203545202020313336CD
:103B800020205E0D0A2039352020203546202020B7
:103B900031333720205F0D0A20393620202036307F
:103BA0002020203134302020600D0A203937202099
:103BB0002036312020203134312020610D0A203977
:103BC0003820202036322020203134322020620D4F
:103BD0000A20393920202036332020203134332068
:103BE00020630D0A3130302020203634202020314F
:103BF00034342020640D0A31303120202036352025
:103C000020203134352020650D0A3130322020202B
:103C100036362020203134362020660D0A313033EC
:103C200020202036372020203134372020670D0A0D
:103C300031303420202036382020203135302020EB
:103C4000680D0A31303520202036392020203135CA
:103C5000312020690D0A31303620202036412020C5
:103C60002031353220206A0D0A31303720202036AD
:103C70004220202031353320206B0D0A313038208E
:103C80002020364320202031353420206C0D0A318D
:103C90003039202020364420202031353520206D39
:103CA0000D0A313130202020364520202031353694
:103CB00020206E0D0A313131202020364620202070
:103CC00031353720206F0D0A313132202020373036
:103CD0002020203136302020700D0A313133202051
:103CE0002037312020203136312020710D0A31312A
:103CF0003420202037322020203136322020720D0F
:103D00000A3131352020203733202020313633202E
:103D100020730D0A31313620202037342020203105
:103D200036342020740D0A313137202020373520D9
:103D300020203136352020750D0A313138202020E1
:103D400037362020203136362020760D0A313139A1
:103D500020202037372020203136372020770D0AC9
:103D600031323020202037382020203137302020B9
:103D7000780D0A3132312020203739202020313788
:103D8000312020790D0A3132322020203741202085
:103D90002031373220207A0D0A313233202020376B
:103DA0004220202031373320207B0D0A313234204D
:103DB0002020374320202031373420207C0D0A3149
:103DC0003235202020374420202031373520207DF7
:103DD0000D0A313236202020374520202031373659
:103DE00020207E0D0A313237202020374620202027
:103DF000313737202044454C202844656C65746574
:103E0000290D0A446563202048657820204F63749B
:103E1000202020436861720D0A2D2D2D2D2D2D2D72
:103E20002D2D2D2D2D2D2D2D2D2D2D2D2D0D0A2012
:103E30002030202020303020202030303020204EF4
:103E4000554C20284E756C6C2063686172616374F8
:103E50006572290D0A2020312020203031202020B9
:103E60003030312020534F48202853746172742021
:103E70006F662048656164696E67290D0A202032EB
:103E8000202020303220202030303220205354583F
:103E900020285374617274206F66205465787429E9
:103EA0000D0A2020332020203033202020303033D2
:103EB00020204554582028456E64206F66205465A4
:103EC0007874290D0A20203420202030342020202E
:103ED0003030342020454F542028456E64206F66D2
:103EE000205472616E736D697373696F6E290D0A68
:103EF0002020352020203035202020303035202053
:103F0000454E512028456E7175697279290D0A2038
:103F1000203620202030362020203030362020410E
:103F2000434B202841636B6E6F776C65646765292E
:103F30000D0A202037202020303720202030303735
:103F4000202042454C202842656C6C290D0A202017
:103F5000382020203038202020303130202042539B
:103F60002020284261636B7370616365290D0A200C
:103F700020392020203039202020303131202048A5
:103F800054202028486F72697A6F6E74616C2054D7
:103F90006162290D0A20313020202030412020206C
:103FA00030313220204C462020284C696E65204656
:103FB0006565642C204E6577204C696E65290D0A75
:103FC0002031312020203042202020303133202069
:103FD0005654202028566572746963616C205461C0
:103FE00062290D0A20313220202030432020203049
:103FF000313420204646202028466F726D204665C9
:1040000065642C204E65772050616765290D0A2074
:1040100031332020203044202020303135202043EF
:10402000522020284361727269616765205265746D
:1040300075726E290D0A2031342020203045202051
:10404000203031362020534F202028536869667471
:10405000204F7574290D0A2031352020203046204C
:1040600020203031372020534920202853686966AA
:104070007420496E290D0A2031362020203130204D
:1040800020203032302020444C4520284461746187
:10409000204C696E6B20457363617065290D0A20A1
:1040A000313720202031312020203032312020446F
:1040B0004331202844657669636520436F6E7472CE
:1040C0006F6C2031290D0A20313820202031322018
:1040D0002020303232202044433220284465766943
:1040E000636520436F6E74726F6C2032290D0A2055
:1040F0003139202020313320202030323320204419
:104100004333202844657669636520436F6E74727B
:104110006F6C2033290D0A203230202020313420CA
:1041200020203032342020444334202844657669EE
:10413000636520436F6E74726F6C2034290D0A2002
:104140003231202020313520202030323520204EC1
:10415000414B20284E656761746976652041636B29
:104160006E6F776C65646765290D0A2032322020F6
:10417000203136202020303236202053594E20283E
:1041800053796E6368726F6E6F75732049646C65E6
:10419000290D0A20323320202031372020203032D0
:1041A0003720204554422028456E64206F662054F5
:1041B00072616E736D697420426C6F636B290D0AB6
:1041C000203234202020313820202030333020206D
:1041D00043414E202843616E63656C290D0A2032ED
:1041E0003520202031392020203033312020454D0A
:1041F000202028456E64206F66204D656469756DCA
:10420000290D0A2032362020203141202020303351
:104210003220205355422028537562737469747597
:104220007465290D0A2032372020203142202020B9
:104230003033332020455343202845736361706534
:10424000290D0A203238202020314320202030330D
:10425000342020465320202846696C652053657021
:10426000617261746F72290D0A2032392020203169
:104270004420202030333520204753202028477207
:104280006F757020536570617261746F72290D0AC9
:10429000203330202020314520202030333620208C
:1042A00052532020285265636F72642053657061F9
:1042B0007261746F72290D0A20333120202031463B
:1042C00020202030333720205553202028556E6978
:1042D0007420536570617261746F72290D0A203306
:1042E000322020203230202020303430202020285E
:1042F0005370616365290D0A203333202020323149
:104300002020203034312020210D0A203334202079
:104310002032322020203034322020220D0A203357
:104320003520202032332020203034332020230D2C
:104330000A2033362020203234202020303434200C
:1043400020240D0A20333720202032352020203031
:1043500034352020250D0A20333820202032362005
:1043600020203034362020260D0A2033392020200A
:1043700032372020203034372020270D0A203430D7
:1043800020202032382020203035302020280D0AEF
:104390002034312020203239202020303531202097
:1043A000290D0A20343220202032412020203035AF
:1043B0003220202A0D0A20343320202032422020AF
:1043C0002030353320202B0D0A2034342020203299
:1043D0004320202030353420202C0D0A2034352075
:1043E0002020324420202030353520202D0D0A2079
:1043F0003436202020324520202030353620202E13
:104400000D0A203437202020324620202030353736
:1044100020202F0D0A203438202020333020202067
:104420003036302020300D0A20343920202033311E
:104430002020203036312020310D0A203530202038
:104440002033322020203036322020320D0A203511
:104450003120202033332020203036332020330DEC
:104460000A203532202020333420202030363420DA
:1044700020340D0A203533202020333520202030F1
:1044800036352020350D0A203534202020333620C3
:1044900020203036362020360D0A203535202020C9
:1044A00033372020203036372020370D0A2035368C
:1044B00020202033382020203037302020380D0AAB
:1044C000203537202020333920202030373120205C
:1044D000390D0A2035382020203341202020303764
:1044E0003220203A0D0A2035392020203342202066
:1044F0002030373320203B0D0A2036302020203357
:104500004320202030373420203C0D0A2036312033
:104510002020334420202030373520203D0D0A2034
:104520003632202020334520202030373620203ED0
:104530000D0A203633202020334620202030373704
:1045400020203F0D0A203634202020343020202027
:104550003130302020400D0A2036352020203431E3
:104560002020203130312020410D0A2036362020F5
:104570002034322020203130322020420D0A2036D3
:104580003720202034332020203130332020430DA9
:104590000A203638202020343420202031303420A6
:1045A00020440D0A203639202020343520202031A7
:1045B00030352020450D0A20373020202034362089
:1045C00020203130362020460D0A2037312020208F
:1045D00034372020203130372020470D0A20373251
:1045E00020202034382020203131302020480D0A6E
:1045F0002037332020203439202020313131202031
:10460000490D0A2037342020203441202020313128
:104610003220204A0D0A2037352020203442202025
:104620002031313320204B0D0A2037362020203412
:104630004320202031313420204C0D0A20373720F0
:104640002020344420202031313520204D0D0A20F7
:104650003738202020344520202031313620204E8C
:104660000D0A2037392020203446202020313137D0
:1046700020204F0D0A2038302020203530202020E7
:104680003132302020500D0A2038312020203531A1
:104690002020203132312020510D0A2038322020B4
:1046A0002035322020203132322020520D0A20388D
:1046B0003320202035332020203132332020530D69
:1046C0000A20383420202035342020203132342074
:1046D00020540D0A20383520202035352020203167
:1046E00032352020550D0A2038362020203536203E
:1046F00020203132362020560D0A20383720202045
:1047000035372020203132372020570D0A20383805
:1047100020202035382020203133302020580D0A29
:1047200020383920202035392020203133312020F5
:10473000590D0A20393020202035412020203133E6
:104740003220205A0D0A20393120202035422020E5
:104750002031333320205B0D0A20393220202035D0
:104760004320202031333420205C0D0A20393320AF
:104770002020354420202031333520205D0D0A20B3
:104780003934202020354520202031333620205E4A
:104790000D0A20393520202035462020203133379E
:1047A00020205F0D0A20393620202036302020209E
:1047B0003134302020600D0A203937202020363156
:1047C0002020203134312020610D0A20393820206A
:1047D0002036322020203134322020620D0A203948
:1047E0003920202036332020203134332020630D1F
:1047F0000A3130302020203634202020313434203B
:1048000020640D0A3130312020203635202020311F
:1048100034352020650D0A313032202020363620F4
:1048200020203134362020660D0A313033202020FC
:1048300036372020203134372020670D0A313034BC
:1048400020202036382020203135302020680D0AE5
:1048500031303520202036392020203135312020BC
:10486000690D0A3130362020203641202020313594
:104870003220206A0D0A3130372020203642202095
:104880002031353320206B0D0A313038202020367E
:104890004320202031353420206C0D0A313039205E
:1048A0002020364420202031353520206D0D0A315E
:1048B0003130202020364520202031353620206E12
:1048C0000D0A313131202020364620202031353765
:1048D00020206F0D0A313132202020373020202057
:1048E0003136302020700D0A31313320202037310D
:1048F0002020203136312020710D0A313134202022
:104900002037322020203136322020720D0A3131FA
:104910003520202037332020203136332020730DDE
:104920000A313136202020373420202031363420FF
:1049300020740D0A313137202020373520202031D6
:1049400036352020750D0A313138202020373620A9
:1049500020203136362020760D0A313139202020B2
:1049600037372020203136372020770D0A3132307A
:1049700020202037382020203137302020780D0AA1
:10498000313231202020373920202031373120208A
:10499000790D0A3132322020203741202020313752
:1049A0003220207A0D0A3132332020203742202055
:1049B0002031373320207B0D0A313234202020373C
:1049C0004320202031373420207C0D0A313235201D
:1049D0002020374420202031373520207D0D0A311A
:1049E0003236202020374520202031373620207EC7
:1049F0000D0A31323720202037462020203137372A
:104A0000202044454C202844656C657465290D0AB6
:104A1000446563202048657820204F63742020205F
:104A2000436861720D0A2D2D2D2D2D2D2D2D2D2D2F
:104A30002D2D2D2D2D2D2D2D2D2D0D0A202030200D
:104A40002020303020202030303020204E554C2087
:104A5000284E756C6C20636861726163746572299D
:104A60000D0A20203120202030312020203030310C
:104A70002020534F4820285374617274206F6620A1
:104A800048656164696E67290D0A20203220202064
:104A900030322020203030322020535458202853E8
:104AA00074617274206F662054657874290D0A2031
:104AB0002033202020303320202030303320204568
:104AC00054582028456E64206F66205465787429F8
:104AD0000D0A202034202020303420202030303493
:104AE0002020454F542028456E64206F6620547264
:104AF000616E736D697373696F6E290D0A202035BD
:104B000020202030352020203030352020454E51C7
:104B10002028456E7175697279290D0A202036208A
:104B200020203036202020303036202041434B20BA
:104B30002841636B6E6F776C65646765290D0A2089
:104B400020372020203037202020303037202042CE
:104B5000454C202842656C6C290D0A202038202005
:104B6000203038202020303130202042532020288F
:104B70004261636B7370616365290D0A20203920DF
:104B8000202030392020203031312020485420206E
:104B900028486F72697A6F6E74616C205461622963
:104BA0000D0A2031302020203041202020303132A9
:104BB00020204C462020284C696E6520466565649F
:104BC0002C204E6577204C696E65290D0A20313105
:104BD0002020203042202020303133202056542005
:104BE0002028566572746963616C20546162290DD6
:104BF0000A20313220202030432020203031342040
:104C0000204646202028466F726D20466565642C3C
:104C1000204E65772050616765290D0A20313320C9
:104C200020203044202020303135202043522020C5
:104C30002843617272696167652052657475726E8E
:104C4000290D0A2031342020203045202020303109
:104C5000362020534F2020285368696674204F75F2
:104C600074290D0A203135202020304620202030A4
:104C70003137202053492020285368696674204921
:104C80006E290D0A2031362020203130202020309E
:104C900032302020444C45202844617461204C6906
:104CA0006E6B20457363617065290D0A20313720D2
:104CB0002020313120202030323120204443312047
:104CC0002844657669636520436F6E74726F6C204B
:104CD00031290D0A20313820202031322020203087
:104CE00032322020444332202844657669636520AF
:104CF000436F6E74726F6C2032290D0A2031392097
:104D000020203133202020303233202044433320F0
:104D10002844657669636520436F6E74726F6C20FA
:104D200033290D0A20323020202031342020203039
:104D3000323420204443342028446576696365205A
:104D4000436F6E74726F6C2034290D0A203231204B
:104D50002020313520202030323520204E414B207C
:104D6000284E656761746976652041636B6E6F7765
:104D70006C65646765290D0A2032322020203136A7
:104D8000202020303236202053594E202853796E6F
:104D90006368726F6E6F75732049646C65290D0AC4
:104DA000203233202020313720202030323720207D
:104DB0004554422028456E64206F66205472616E0F
:104DC000736D697420426C6F636B290D0A20323455
:104DD0002020203138202020303330202043414E05
:104DE000202843616E63656C290D0A20323520202E
:104DF0002031392020203033312020454D202028FB
:104E0000456E64206F66204D656469756D290D0AD5
:104E10002032362020203141202020303332202003
:104E200053554220285375627374697475746529EB
:104E30000D0A203237202020314220202030333309
:104E400020204553432028457363617065290D0A6E
:104E500020323820202031432020203033342020BD
:104E6000465320202846696C652053657061726145
:104E7000746F72290D0A20323920202031442020FD
:104E8000203033352020475320202847726F75701B
:104E900020536570617261746F72290D0A2033307E
:104EA000202020314520202030333620205253202E
:104EB00020285265636F726420536570617261745B
:104EC0006F72290D0A203331202020314620202006
:104ED00030333720205553202028556E69742053D5
:104EE0006570617261746F72290D0A20333220205F
:104EF0002032302020203034302020202853706190
:104F00006365290D0A2033332020203231202020F0
:104F10003034312020210D0A203334202020323239
:104F20002020203034322020220D0A20333520204A
:104F30002032332020203034332020230D0A203328
:104F40003620202032342020203034342020240DFC
:104F50000A203337202020323520202030343520DD
:104F600020250D0A20333820202032362020203002
:104F700034362020260D0A203339202020323720D5
:104F800020203034372020270D0A203430202020E4
:104F900032382020203035302020280D0A203431AE
:104FA00020202032392020203035312020290D0AC0
:104FB0002034322020203241202020303532202061
:104FC0002A0D0A2034332020203242202020303580
:104FD0003320202B0D0A203434202020324320207F
:104FE0002030353420202C0D0A203435202020326A
:104FF0004420202030353520202D0D0A2034362045
:105000002020324520202030353620202E0D0A2049
:105010003437202020324620202030353720202FE2
:105020000D0A203438202020333020202030363024
:105030002020300D0A203439202020333120202038
:105040003036312020310D0A2035302020203332F7
:105050002020203036322020320D0A203531202009
:105060002033332020203036332020330D0A2035E2
:105070003220202033342020203036342020340DBC
:105080000A203533202020333520202030363520AB
:1050900020350D0A203534202020333620202030C2
:1050A00036362020360D0A20353520202033372093
:1050B00020203036372020370D0A2035362020209A
:1050C00033382020203037302020380D0A20353763
:1050D00020202033392020203037312020390D0A7C
:1050E0002035382020203341202020303732202026
:1050F0003A0D0A2035392020203342202020303735
:105100003320203B0D0A203630202020334320203E
:105110002030373420203C0D0A2036312020203327
:105120004420202030373520203D0D0A2036322003
:105130002020334520202030373620203E0D0A2005
:105140003633202020334620202030373720203FA0
:105150000D0A2036342020203430202020313030F9
:105160002020400D0A2036352020203431202020F8
:105170003130312020410D0A2036362020203432B3
:105180002020203130322020420D0A2036372020C6
:105190002034332020203130332020430D0A2036A4
:1051A0003820202034342020203130342020440D79
:1051B0000A20363920202034352020203130352077
:1051C00020450D0A20373020202034362020203181
:1051D00030362020460D0A20373120202034372059
:1051E00020203130372020470D0A20373220202060
:1051F00034382020203131302020480D0A20373328
:1052000020202034392020203131312020490D0A3E
:1052100020373420202034412020203131322020FA
:105220004A0D0A20373520202034422020203131F9
:105230003320204B0D0A20373620202034432020F5
:105240002031313420204C0D0A20373720202034E3
:105250004420202031313520204D0D0A20373820C0
:105260002020344520202031313620204E0D0A20C8
:105270003739202020344620202031313720204F5C
:105280000D0A2038302020203530202020313230C7
:105290002020500D0A2038312020203531202020B8
:1052A0003132312020510D0A203832202020353271
:1052B0002020203132322020520D0A203833202085
:1052C0002035332020203132332020530D0A20385E
:1052D0003420202035342020203132342020540D39
:1052E0000A20383520202035352020203132352045
:1052F00020550D0A20383620202035362020203138
:1053000032362020560D0A2038372020203537200D
:1053100020203132372020570D0A20383820202015
:1053200035382020203133302020580D0A203839DC
:1053300020202035392020203133312020590D0AFA
:1053400020393020202035412020203133322020C8
:105350005A0D0A20393120202035422020203133B7
:105360003320205B0D0A20393220202035432020B5
:105370002031333420205C0D0A20393320202035A1
:105380004420202031333520205D0D0A203934207F
:105390002020354520202031333620205E0D0A2084
:1053A0003935202020354620202031333720205F1A
:1053B0000D0A20393620202036302020203134308C
:1053C0002020600D0A20393720202036312020206F
:1053D0003134312020610D0A203938202020363226
:1053E0002020203134322020620D0A20393920203B
:1053F0002036332020203134332020630D0A313011
:105400003020202036342020203134342020640DF8
:105410000A3130312020203635202020313435200B
:1054200020650D0A313032202020363620202031F0
:1054300034362020660D0A313033202020363720C4
:1054400020203134372020670D0A313034202020CD
:1054500036382020203135302020680D0A31303593
:1054600020202036392020203135312020690D0AB6
:105470003130362020203641202020313532202086
:105480006A0D0A3130372020203642202020313565
:105490003320206B0D0A3130382020203643202065
:1054A0002031353420206C0D0A313039202020364F
:1054B0004420202031353520206D0D0A3131302037
:1054C0002020364520202031353620206E0D0A312F
:1054D0003131202020364620202031353720206FE2
:1054E0000D0A313132202020373020202031363053
:1054F0002020700D0A313133202020373120202028
:105500003136312020710D0A3131342020203732DC
:105510002020203136322020720D0A3131352020F2
:105520002037332020203136332020730D0A3131CB
:105530003620202037342020203136342020740DAE
:105540000A313137202020373520202031363520D0
:1055500020750D0A313138202020373620202031A7
:1055600036362020760D0A31313920202037372079
:1055700020203136372020770D0A3132302020208C
:1055800037382020203137302020780D0A31323151
:1055900020202037392020203137312020790D0A72
:1055A0003132322020203741202020313732202054
:1055B0007A0D0A3132332020203742202020313723
:1055C0003320207B0D0A3132342020203743202025
:1055D0002031373420207C0D0A313235202020370D
:1055E0004420202031373520207D0D0A31323620ED
:1055F0002020374520202031373620207E0D0A31EB
:1056000032372020203746202020313737202044D1
:10561000454C202844656C657465290D0A44656312
:10562000202048657820204F637420202043686143
:10563000720D0A2D2D2D2D2D2D2D2D2D2D2D2D2D98
:105640002D2D2D2D2D2D2D0D0A2020302020203008
:105650003020202030303020204E554C20284E75F0
:105660006C6C20636861726163746572290D0A2035
:105670002031202020303120202030303120205394
:105680004F4820285374617274206F66204865610A
:1056900064696E67290D0A202032202020303220D4
:1056A0002020303032202053545820285374617207
:1056B00074206F662054657874290D0A20203320E9
:1056C00020203033202020303033202045545820F3
:1056D00028456E64206F662054657874290D0A2071
:1056E0002034202020303420202030303420204529
:1056F0004F542028456E64206F66205472616E738B
:105700006D697373696F6E290D0A20203520202082
:1057100030352020203030352020454E512028457E
:105720006E7175697279290D0A202036202020308B
:1057300036202020303036202041434B2028416342
:105740006B6E6F776C65646765290D0A20203720C2
:1057500020203037202020303037202042454C2078
:105760002842656C6C290D0A202038202020303812
:1057700020202030313020204253202028426163F5
:105780006B7370616365290D0A2020392020203059
:105790003920202030313120204854202028486FE3
:1057A00072697A6F6E74616C20546162290D0A20EF
:1057B0003130202020304120202030313220204C38
:1057C000462020284C696E6520466565642C204E75
:1057D0006577204C696E65290D0A20313120202023
:1057E00030422020203031332020565420202856AB
:1057F0006572746963616C20546162290D0A2031FD
:1058000032202020304320202030313420204646D2
:10581000202028466F726D20466565642C204E65F9
:10582000772050616765290D0A2031332020203010
:10583000442020203031352020435220202843614D
:105840007272696167652052657475726E290D0AFE
:1058500020313420202030452020203031362020B7
:10586000534F2020285368696674204F7574290DA2
:105870000A203135202020304620202030313720AA
:10588000205349202028536869667420496E290DE9
:105890000A203136202020313020202030323020A4
:1058A00020444C45202844617461204C696E6B2073
:1058B000457363617065290D0A203137202020313E
:1058C00031202020303231202044433120284465CB
:1058D0007669636520436F6E74726F6C2031290D99
:1058E0000A2031382020203132202020303232204E
:1058F00020444332202844657669636520436F6EF7
:1059000074726F6C2032290D0A2031392020203129
:105910003320202030323320204443332028446574
:105920007669636520436F6E74726F6C2033290D46
:105930000A20323020202031342020203032342000
:1059400020444334202844657669636520436F6EA4
:1059500074726F6C2034290D0A20323120202031DE
:105960003520202030323520204E414B20284E65F6
:105970006761746976652041636B6E6F776C6564EF
:105980006765290D0A203232202020313620202060
:10599000303236202053594E202853796E63687276
:1059A0006F6E6F75732049646C65290D0A20323360
:1059B000202020313720202030323720204554420B
:1059C0002028456E64206F66205472616E736D6985
:1059D0007420426C6F636B290D0A20323420202022
:1059E0003138202020303330202043414E202843BE
:1059F000616E63656C290D0A203235202020313913
:105A00002020203033312020454D202028456E6451
:105A1000206F66204D656469756D290D0A20323648
:105A20002020203141202020303332202053554285
:105A3000202853756273746974757465290D0A2082
:105A4000323720202031422020203033332020459F
:105A500053432028457363617065290D0A2032384D
:105A60002020203143202020303334202046532072
:105A7000202846696C6520536570617261746F728D
:105A8000290D0A20323920202031442020203033B3
:105A9000352020475320202847726F7570205365AA
:105AA00070617261746F72290D0A203330202020DA
:105AB00031452020203033362020525320202852D8
:105AC00065636F726420536570617261746F7229CF
:105AD0000D0A20333120202031462020203033375A
